:100B6C003C615820003C615920003C615A20003CFB
:100B7C006D5820003C6D5920003C6D5A20003C748F
:100B8C004120003C744F20003C312D31303E003C64
:100B9C0054455353200030342F31312F3134003E23
:100BAC000D0A003C6D5420003C666D20003C666DC7
:100BBC002D003C664820003C66482D3030303031EA
:010BCC000028
:0507F300013D00C10002
:080003003004FD8F99C20422B4
:060E76007B007A007927E1
:100E7C001203F0FF600C120003740129F9E43AFA32
:030E8C0080EE22D3
:100E5C00E543540FFFE542540F75F00AA42FFFE54C
:090E6C0041540F75F064A42FFF3E
:010E7500225A
:100C21008B0A8A0B890C8C0D8D0E850F82758300C2
:100C3100E4120409E50F6037AE0DAF0E7C007D0AAA
:100C410012043DED2430FFE50F7C0024FFF582EC1A
:100C510034FFF583AB0AAA0BA90CEF120409AE0D00
:100C6100AF0E7D0A12043D8E0D8F0E150F80C52229
:0107F90022DD
:100EDA00E4FEEEC39F5009E4FD0DBD6FFC0E80F2E7
:010EEA0022E5
:100EA400C2AF53890F438950E4F58BF58DD28ED2AE
:020EB400AF226B
:10000E00C2AF75985053890F438920758DFDD28EDE
:05001E00D2ACD2AF22BC
:03002300020C715B
:070C7100C0E0C0D075D010F7
:100C780030983CAF99300029EF643C6024AE3D05C4
:100C88003D743F2EF8A617E53DD394074003753D04
:100C980000BF3E17C200D201743F253DF8760080A0
:100CA8000ABF3C07D2008F3F753D01C2988004C23D
:030CB80099D204CA
:050CBB00D0D0D0E032B2
:100EB600D2911207F9C2901207F91207F9C29102EC
:020EC60007F92A
:0F0EFC00C2901207F9D2911207F9D2900207F9AA
:0E0F0B00D2911207F9209106050AE50A70F747
:010F190022B5
:020DCE00AE076E
:100DD000E4FDFC120F0B1207F9ED25E0FD30900148
:100DE0000DC2911207F90CBC08E9EE24FF92901293
:100DF0000F0B1207F9C2911207F9D2901207F912DC
:040E000007F9AF053A
:010E040022CB
:070EC800120EFCE4FD7F3C6B
:0B0ECF00AE07120EB6EE2DFF020E055E
:020E0500AE0736
:100E0700E4FDEE30E704D2908002C290120F0B127D
:100E170007F9C2911207F9EE25E0FE0DBD08E3D2EE
:0F0E2700901207F9120F0B1207F9C2910207F987
:100D9300E4FD7F32120ECF7F20120E057F27120E45
:100DA30005120EC87F02120E05E4FF120E05120E85
:100DB300C8E4FF120E057F90120E05120EC87F01C4
:0B0DC300120E057F20120E05020EFC30
:100CC0008E088F09D3E5099400E50864809480407C
:100CD0000B7F2B120003AE08AF0980107F2D12008E
:100CE00003AE08AF097CFF7DFF12042B7C007D1052
:100CF000120492AC06AD077B007A007927750F04C9
:0B0D0000120C21120E767F3E02000351
:100D0B008E088F09D3E5099400E508648094804030
:100D1B00117F2B1200037B007A007927AC08AD09F9
:100D2B00801A7F2D120003AE08AF097CFF7DFF12E6
:100D3B00042BAD07AC067B007A007927750F0412E4
:0A0D4B000C21120E767F3E02000319
:1009C0008F088D09E4FD120ECFAF09120E057D01CF
:1009D000AF08120ECF7F01120DCE7524008F2512A5
:1009E0000EFCE4FDAF08120ECFE50904FF120E0560
:1009F0007D01AF08120ECF7F01120DCE753B008F27
:100A00003C120EFCE508B43231E53CFEE42525F548
:100A100025EE3524F524C3E53C9480E53B648094C1
:100A200080404C74FF9525FF74FF9524FE7CFF7D6C
:100A3000FF12042B8E248F258035E525FEE4253C0E
:100A4000F53CEE353BF53BC3E5259480E524648019
:100A50009480401574FF953CFF74FF953BFE7CFF2E
:100A60007DFF12042B8E3B8F3C853B24853C25AEBD
:040A700024AF252268
:100B00007D287F321209C08E498F4A7D2A7F32129A
:100B100009C08E4F8F507D2C7F321209C08E518FAD
:100B200052E54A45497012E550454F700CE5524573
:100B3000517006120D93C20222D2027BFF7A0B790A
:100B40006C120E7CAF4AAE49120CC07BFF7A0B7957
:100B500071120E7CAF50AE4F120CC07BFF7A0B7936
:0C0B600076120E7CAF52AE51120CC02277
:100BCD003002417D037F3C1209C08E578F587D073F
:100BDD007F3C1209C08E598F5A7D057F3C1209C08A
:100BED008E5B8F5C7BFF7A0B797B120E7CAF58AEE0
:100BFD0057120D0B7BFF7A0B7980120E7CAF5AAE1C
:100C0D0059120D0B7BFF7A0B7985120E7CAF5CAE02
:040C1D005B020D0B5E
:020D55008F0805
:100D5700E4FDFF120ECFAF08120E057D01E4FF126E
:100D67000ECFE4FF120DCEA9077F01120DCEAD07FE
:100D77007C00EF30E704E4FEFF22120EFCE9FB7A69
:0B0D870000EDFEE42BFDEA3EFEAF0590
:010D9200223E
:100800007F06120D558E498F4AD3E54A9400E5497B
:1008100064809480500201EB7BFF7A0B798A120E80
:100820007CE54A25E0FFE54933FEEF244DF54AEE2D
:100830003495F549D3E54A9400E5496480948040B5
:10084000147F2B1200037B007A007927750F04AD0B
:100850004AAC49801D7F2D120003AE49AF4A7CFF90
:100860007DFF12042BAC06AD077B007A007927755B
:100870000F04120C21120E767F3E1200037BFF7ACA
:100880000B798F120E7C7F07120D558E498F4AE52A
:100890004A25E0FFE54933FEEF244DF54AEE349555
:1008A000F549D3E54A9400E5496480948040147F7B
:1008B0002B1200037B007A007927750F04AD4AAC38
:1008C00049801D7F2D120003AE49AF4A7CFF7DFF9A
:1008D00012042BAC06AD077B007A007927750F0454
:0C08E000120C21120E767F3E1200032243
:10074F00EF248D60532426B40A004002E1F2900793
:10075F006725E05002058373E1B1E1F2E1F2E17B3D
:10076F00E1F2E1B4E19DE1CEE1F2E1B7120E5C8F6F
:10077F0021E521D3940A500EE521C394014007755A
:10078F0047008F48800A7BFF7A0B7994802ED20521
:10079F007B007A00793F8024C2057B007A00793F85
:1007AF00801A020800020D937BFF7A0B799B120EC1
:1007BF007C7A0B79A2120E7C7A0B79AB020E7C7BC2
:1007CF00FF7A0B79AF120E7C7D317F3C1209C08E00
:1007DF00498F4AE54A7804CEA2E713CE13D8F8FF23
:0307EF00120D0BDD
:0107F20022E4
:100EEB005389F0438901758AB5758CFFD2A9C28CE1
:010EFB0022D4
:03000B00020E36AC
:100E3600C0E0C0D0C28C758ABE758CFFC3E5239412
:100E4600FFE52294FF50080523E52370020522D210
:060E56008CD0D0D0E03288
:1004EC00120EEBE4F522F52320B502A17AD28C3062
:1004FC00B536E52364207004E522644E6013AE2209
:10050C00AF23E4FCFD7B407A9CF9F8C31204D6704F
:10051C0005120E8F80D9AE22AF23E4FCFDFB7AFED0
:10052C00F9F8C31204D650C7C28CE4F522F523D2D5
:10053C008C20B536E52364207004E522644E6013EC
:10054C00AE22AF23E4FCFD7B407A9CF9F8C3120485
:10055C00D67005120E8F80D9AE22AF23E4FCFDFBC2
:10056C007AFEF9F8C31204D650C7C28C807FD28CA5
:10057C0020B536E52364207004E522644E6013AE8A
:10058C0022AF23E4FCFD7B407A9CF9F8C31204D61D
:10059C007005120E8F80D9AE22AF23E4FCFDFB7ADE
:1005AC00FEF9F8C31204D650C7C28CE4F522F52329
:1005BC00D28C30B536E52364207004E522644E609D
:1005CC0013AE22AF23E4FCFD7B407A9CF9F8C312F6
:1005DC0004D67005120E8F80D9AE22AF23E4FCFD39
:1005EC00FB7AFEF9F8C31204D650C7C28CD3E523AC
:1005FC009464E52294004042AE22AF23E4FCFDFB60
:10060C007AFEF9F8D31204D64025AC22AD23E412BD
:10061C000336A804A905AA06AB077F007E607D9C63
:10062C007C451202278F4E8E4D8D4C8C4B8064E492
:10063C00F54EF54DF54CF54B8059E4F522F52312AA
:10064C000EEB120EA4D28CC3E523948CE5229413EA
:10065C005005E58DB4FFF0C28EC28CAF8DEFAD8B23
:10066C00F522EDF523D39414E52294004019AC2225
:10067C00E4120336E4FBFAF9784012011E8F4E8E19
:10068C004D8D4C8C4B8009E4F54EF54DF54CF54BEE
:10069C0012000E7F007EE87D7D7C47AB4EAA4DA9F3
:1006AC004CA84B1202C44002E141E4FFFE7D487CA1
:1006BC0042AB4EAA4DA94CA84B1202C45047E4FFC2
:1006CC00FEFDFCAB4EAA4DA94CA84B1202C47BFFFD
:1006DC00602540237A0B79B4120E7CE4FFFE7D7A00
:1006EC007C44AB4EAA4DA94CA84B12011E8F568EC2
:1006FC00558D548C53801F7A0B79B9120E7CE4F50E
:10070C0022F52380187BFF7A0B79BE120E7CAF4E3C
:10071C00AE4DAD4CAC4B12036F8E228F237B007A07
:10072C00007927750F05AD23AC22120C217B007AC2
:10073C0000792780067BFF7A0B79C3120E7C7F3EF3
:03074C00020003A5
:100E8F00120800120B00120BCDD2B77F0D12000308
:050E9F007F0A020003C0
:1008EC007F64120EDA120D9312000ED2AFD2047581
:1008FC0047007548017BFF7A0B799B120E7C7A0BB3
:10090C0079A2120E7C7A0B79AB120E7C30010DE4BD
:10091C00F53DC20185405DAF5D12074FAF61AE6022
:10092C00AD5FAC5EE4FBFA7980783F12002D8F61ED
:10093C008E608D5F8C5EAE47AF487C007DC8120424
:10094C002BAC06AD07EC120336AB61AA60A95FA80D
:10095C005E1202C460134011C2B7E4F561F560F594
:10096C005FF55E1204EC120E8F3005A0120B001214
:10097C000BCD7F0D1200037F0A120003AB61AA603E
:10098C00A95FA85EC000C001C002C003AE47AF485B
:10099C007C007D1412042BAC06AD07EC120336D090
:1009AC0003D002D001D00012002D8F618E608D5FBC
:0409BC008C5E211814
:100026000203DBE86480F8E933E83360110460F02A
:10003600ED33EC337009E8FCE9FDEAFEEBFF220440
:1000460060DED3EB9FEA9EE99DE8C2E78CF0C2F73B
:1000560095F0400CE8CCF8E9CDF9EACEFAEBCFFB07
:100066001203A685D0F05804700320D5B3E80470B7
:10007600075002B2D50203E592D5EC0460F7E4CC52
:10008600C0E0C398F8603B94186008400DD0E0FBD0
:100096000203BDE4FBFAC9FC8028E830E406E4C9A3
:1000A600FBE4CAFCE830E305E4C9CACBFCE8540724
:1000B6006010F8C3E913F9EA13FAEB13FBEC13FC2F
:1000C600D8F130F52FC3E49CFCEF9BFFEE9AFEEDD2
:1000D60099FDD0E0FBEF4E4D4C701222DB0302037C
:1000E600E2EC2CFCEF33FFEE33FEED33FDED30E7B3
:1000F600EB0203BDEF2BFFEE3AFEED39FDD0E0FB40
:1001060050130BBB00030203E5ED13FDEE13FEEFE8
:0801160013FFEC13FC0203BD12
:10011E00EC4D6011E8497017ED33EC3304600DE4DB
:10012E00FCFFFEFD22E933E8330470F80203DB1214
:10013E0003A658046009E4CC248150062850090215
:10014E0003E52840030203E2C0E0EB4A7044B980A5
:10015E0006D0E0FB0203D1EF4E701CBD8008EBFF12
:10016E00EAFEE9FD80EBE98DF0A4FEE5F002020760
:10017E00E9CDF9EAFEEBFFEF89F0A4FCE5F0CE89BC
:10018E00F0A42EFFE435F0CD89F0A42DFEE435F079
:10019E008067EF4E7005BD80D780C3EF8BF0A4ACA7
:1001AE00F0EE8BF0A42CFCE435F0F8EF8AF0A42CE2
:1001BE00E5F038FCE433CB8DF0A42CFCE5F03BF8F5
:1001CE00EE8AF0A42CFCE5F038F8E433CF89F0A4E5
:1001DE002CFCE5F038CF3400CE89F0A42FFFE5F0EB
:1001EE003EFEE433C98DF0A42EFEE5F039CD8AF043
:1001FE00A42FFFE5F03EFEE43DFD33D0E0FB5007BB
:10020E000BBB000F0203E5EC2CFCEF33FFEE33FECD
:06021E00ED33FD0203BDFB
:100224000203E5EC5D046005E8590470030203DB96
:100234001203A6580460F6EC4860F2EC7004FDFE6C
:10024400FF22C860DB2481C85009C39860025006AD
:100254000203E29850CAF582E9294B4A7005AB8241
:100264000203D175F0007C1A7880C3EF9BEE9AEDFF
:1002740099400DC3EF9BFFEE9AFEED99FDE842F025
:10028400DC23ACF0D0E0FFD0E0FED0E0FDAB822078
:10029400E7101BEB60BAEC2CFCEF33FFEE33FEED02
:1002A40033FD0203BDE803F830E705C0F075F00044
:1002B400EF2FFFEE33FEED33FD40B830E7C280AAE6
:1002C40074F8CC6480CCC86480C8F582046043C3ED
:1002D400EB9FF5F0EA9E42F0E99D42F0E89C45F080
:1002E40060305018E5825FFFE582F42B5582FB50A5
:1002F400210ABA001D09B90019088016E5825BFBC2
:10030400E582F42F5582FF50090EBE00050DBD0095
:10031400010CC3EB9FF5F0EA9E42F0E99D42F0E840
:0D0324009C45F06007CC4820E701B3EC22B7
:1003310075F020800E75F010800575F0087D007E47
:10034100007F003392D530D5031204C8EC3340103E
:10035100EF33FFEE33FEED33FDEC33FCD5F0ED2250
:0E036100E5F0247EA2D513CC92E7CDCEFF228C
:10036F00EDD2E7CD33EC3392D524814006E4FFFE86
:10037F00FDFC22FCE4CFCECDCC24E0501174FF80E5
:10038F00EDC3CC13CCCD13CDCE13CECF13CF047082
:07039F00F030D5DE0204C8B6
:1003A600E9D2E7C933E833F892D5EDD2E7CD33EC9D
:0703B60033FC5002B2D52216
:1003BD00EC30E7100FBF000C0EBE00080DBD0004A1
:1003CD000BEB6014A2D5EB13FCED92E7FD2274FF4D
:1003DD00FCFDFEFF22E480F8A2D574FF13FC7D80A6
:0303ED00E480EFBA
:03000000020A747D
:0C0A7400787FE4F6D8FD758161020ABBB2
:1003F000BB010689828A83E0225002E722BBFE020B
:09040000E32289828A83E493223D
:10040900F8BB010DE58229F582E5833AF583E8F029
:10041900225006E92582C8F622BBFE05E92582C8D5
:02042900F222BD
:10042B00EF8DF0A4A8F0CF8CF0A428CE8DF0A42EE5
:02043B00FE229F
:10043D00BC000BBE0029EF8DF084FFADF022E4CCA3
:10044D00F875F008EF2FFFEE33FEEC33FCEE9DEC6C
:10045D00984005FCEE9DFE0FD5F0E9E4CEFD22EDB2
:10046D00F8F5F0EE8420D21CFEADF075F008EF2FFC
:10047D00FFED33FD4007985006D5F0F222C398FDED
:05048D000FD5F0EA228A
:10049200C2D5EC30E709B2D5E4C39DFDE49CFCEE85
:1004A20030E715B2D5E4C39FFFE49EFE12043DC3BC
:1004B200E49DFDE49CFC800312043D30D507C3E4B7
:0604C2009FFFE49EFE22F4
:0E04C800C3E49FFFE49EFEE49DFDE49CFC2245
:1004D600EB9FF5F0EA9E42F0E99D42F0EC6480C89D
:0604E60064809845F0223D
:100A80000208ECE493A3F8E493A34003F68001F298
:100A900008DFF48029E493A3F85407240CC8C33377
:100AA000C4540F4420C8834004F456800146F6DF46
:100AB000E4800B01020408102040809007F3E47EDC
:100AC000019360BCA3FF543F30E509541FFEE4933B
:100AD000A360010ECF54C025E060A840B8E493A302
:100AE000FAE493A3F8E493A3C8C582C8CAC583CA2D
:100AF000F0A3C8C582C8CAC583CADFE9DEE780BEE5
:0107F8000000
:00000001FF
